:100000000C942A000C9447000C9447000C94470071
:100010000C9447000C9447000C9447000C94470044
:100020000C9447000C9447000C9447000C94470034
:100030000C9447000C9447000C9447000C94470024
:100040000C9447000C9447000C9447000C94470014
:100050000C94470011241FBECFE5D4E0DEBFCDBF16
:1000600010E0A0E6B0E0E4EEF1E002C005900D92F1
:10007000A037B107D9F710E0A0E7B0E001C01D92AA
:10008000A237B107E1F70E949D000C94F0000C9498
:10009000000017BA959AC799FECF969A8FE99FE00C
:1000A0000197F1F700C0000082B382BB8FEF87BBDE
:1000B00008959FEF97BB88BB82B3806582BB8FE9B1
:1000C0009FE00197F1F700C0000080E182BB089536
:1000D0009FEF97BB88BB969A8FE99FE00197F1F756
:1000E00000C0000012BA08958FEF81BB88E30E9420
:1000F000680081E00E9468008EE00E94680080E84D
:100100000E94680012BA08958AB188618AB980B5E0
:100110008E6880BD80B580BD85EC92E090937100C3
:100120008093700085EC89B908955F9BFECF8CB1F8
:1001300008955D9BFECF8CB908950E9474000E94C3
:100140008400509A88EF0E9499008FEF90E7A2E018
:1001500081509040A040E1F700C000008AB18AB908
:1001600000E610E0802F0E94590082E690E00E9495
:100170005900C4E6D0E08C2F0E94590086E690E03A
:100180000E94590088E690E00E9459008AE690E0BB
:100190000E9459008C2F0E9459008CE690E00E942A
:1001A0005900802F0E9459008FEF97EAA1E68150F5
:1001B0009040A040E1F700C0000081E00E9468008C
:1001C0008FEF90E7A2E081509040A040E1F700C09F
:1001D00000000E94950080936E000E945900F9CFA4
:0401E000F894FFCFC1
:1001E4005400450041004D0020004B005200200007
:00000001FF
